{
  "abi": [
    {
      "anonymous": false,
      "inputs": [],
      "name": "startPayout",
      "type": "event"
    },
    {
      "inputs": [
        {
          "internalType": "address payable",
          "name": "_player",
          "type": "address"
        }
      ],
      "name": "addPlayer",
      "outputs": [],
      "stateMutability": "payable",
      "type": "function"
    },
    {
      "inputs": [
        {
          "internalType": "address payable",
          "name": "_winner",
          "type": "address"
        }
      ],
      "name": "addWinner",
      "outputs": [],
      "stateMutability": "nonpayable",
      "type": "function"
    },
    {
      "inputs": [],
      "name": "currentPrize",
      "outputs": [
        {
          "internalType": "uint256",
          "name": "",
          "type": "uint256"
        }
      ],
      "stateMutability": "view",
      "type": "function"
    },
    {
      "inputs": [],
      "name": "numberPlayers",
      "outputs": [
        {
          "internalType": "uint256",
          "name": "",
          "type": "uint256"
        }
      ],
      "stateMutability": "view",
      "type": "function"
    },
    {
      "inputs": [
        {
          "internalType": "uint256",
          "name": "_amount",
          "type": "uint256"
        }
      ],
      "name": "payWinners",
      "outputs": [],
      "stateMutability": "nonpayable",
      "type": "function"
    },
    {
      "inputs": [],
      "name": "payout",
      "outputs": [],
      "stateMutability": "nonpayable",
      "type": "function"
    },
    {
      "inputs": [
        {
          "internalType": "uint256",
          "name": "",
          "type": "uint256"
        }
      ],
      "name": "players",
      "outputs": [
        {
          "internalType": "address payable",
          "name": "",
          "type": "address"
        }
      ],
      "stateMutability": "view",
      "type": "function"
    },
    {
      "inputs": [
        {
          "internalType": "uint256",
          "name": "",
          "type": "uint256"
        }
      ],
      "name": "winners",
      "outputs": [
        {
          "internalType": "address payable",
          "name": "",
          "type": "address"
        }
      ],
      "stateMutability": "view",
      "type": "function"
    }
  ],
  "bytecode": {
    "object": "0x608060405234801561001057600080fd5b50610415806100206000396000f3fe60806040526004361061007b5760003560e01c8063a2fb11751161004e578063a2fb11751461014d578063b1275f9a14610185578063c42b42a014610198578063f71d96cb146101ae57600080fd5b8063297f407b1461008057806349a2aaca146100ef57806363bd1d4a1461011857806386e34bc11461012d575b600080fd5b34801561008c57600080fd5b506100ed61009b366004610337565b600380546001810182556000919091527fc2575a0e9e593c00f959f8c92f12db2869c3395a3b0502d05e2516446f71f85b0180546001600160a01b0319166001600160a01b0392909216919091179055565b005b3480156100fb57600080fd5b5061010560015481565b6040519081526020015b60405180910390f35b34801561012457600080fd5b506100ed6101ce565b34801561013957600080fd5b506100ed610148366004610367565b6101f7565b34801561015957600080fd5b5061016d610168366004610367565b61025d565b6040516001600160a01b03909116815260200161010f565b6100ed610193366004610337565b610287565b3480156101a457600080fd5b5061010560005481565b3480156101ba57600080fd5b5061016d6101c9366004610367565b610327565b476064036101f5576003546000906101e890606490610380565b90506101f3816101f7565b505b565b60005b60035481116102595760038181548110610216576102166103a2565b60009182526020822001546040516001600160a01b039091169184156108fc02918591818181858888f19350505050508080610251906103b8565b9150506101fa565b5050565b6003818154811061026d57600080fd5b6000918252602090912001546001600160a01b0316905081565b346001036102db57600280546001810182556000919091527f405787fa12a823e0f2b7631cc41b3ba8828b3321ca811111fa75cd3aa3bb5ace0180546001600160a01b0319166001600160a01b0383161790555b600180549060006102eb836103b8565b919050555060c860015411156101f3576040517fd8e8545d90a0fc949f9fa79975953750d664b3eb37074e23a481d15736e7727a90600090a150565b6002818154811061026d57600080fd5b60006020828403121561034957600080fd5b81356001600160a01b038116811461036057600080fd5b9392505050565b60006020828403121561037957600080fd5b5035919050565b60008261039d57634e487b7160e01b600052601260045260246000fd5b500490565b634e487b7160e01b600052603260045260246000fd5b6000600182016103d857634e487b7160e01b600052601160045260246000fd5b506001019056fea26469706673582212203f8eab262b3f792b547905f92321e74e8f86d572131fcd0b54ad8ba086f19ca364736f6c63430008110033",
    "linkReferences": {}
  },
  "methodIdentifiers": {
    "addPlayer(address)": "b1275f9a",
    "addWinner(address)": "297f407b",
    "currentPrize()": "c42b42a0",
    "numberPlayers()": "49a2aaca",
    "payWinners(uint256)": "86e34bc1",
    "payout()": "63bd1d4a",
    "players(uint256)": "f71d96cb",
    "winners(uint256)": "a2fb1175"
  },
  "id": 13
}