{
  "abi": [
    {
      "inputs": [
        {
          "internalType": "uint256",
          "name": "_initialAmount",
          "type": "uint256"
        },
        {
          "internalType": "uint256",
          "name": "_blockReward",
          "type": "uint256"
        }
      ],
      "stateMutability": "nonpayable",
      "type": "constructor"
    },
    {
      "inputs": [
        {
          "internalType": "address",
          "name": "_investor",
          "type": "address"
        }
      ],
      "name": "addInvestor",
      "outputs": [],
      "stateMutability": "nonpayable",
      "type": "function"
    },
    {
      "inputs": [],
      "name": "calculatePayout",
      "outputs": [
        {
          "internalType": "uint256",
          "name": "",
          "type": "uint256"
        }
      ],
      "stateMutability": "nonpayable",
      "type": "function"
    },
    {
      "inputs": [],
      "name": "claimTokens",
      "outputs": [],
      "stateMutability": "nonpayable",
      "type": "function"
    },
    {
      "inputs": [
        {
          "internalType": "uint256",
          "name": "",
          "type": "uint256"
        }
      ],
      "name": "investors",
      "outputs": [
        {
          "internalType": "address",
          "name": "",
          "type": "address"
        }
      ],
      "stateMutability": "view",
      "type": "function"
    },
    {
      "inputs": [],
      "name": "token",
      "outputs": [
        {
          "internalType": "contract Token",
          "name": "",
          "type": "address"
        }
      ],
      "stateMutability": "view",
      "type": "function"
    }
  ],
  "bytecode": {
    "object": "0x608060405260008055600060025534801561001957600080fd5b50604051610aa8380380610aa88339810160408190526100389161009f565b604051829061004690610092565b908152602001604051809103906000f080158015610068573d6000803e3d6000fd5b50600380546001600160a01b0319166001600160a01b0392909216919091179055600255506100c3565b61062d8061047b83390190565b600080604083850312156100b257600080fd5b505080516020909101519092909150565b6103a9806100d26000396000f3fe608060405234801561001057600080fd5b50600436106100575760003560e01c80633feb5f2b1461005c57806348c54b9d1461008c57806383c64ec414610096578063e641bde1146100ac578063fc0c546a1461010b575b600080fd5b61006f61006a366004610273565b61011e565b6040516001600160a01b0390911681526020015b60405180910390f35b610094610148565b005b61009e61022c565b604051908152602001610083565b6100946100ba36600461028c565b6001805480820182556000919091527fb10e2d527612073b26eecdfd717e6a320cf44b4afac2b0732d9fcbe2b7fa0cf60180546001600160a01b0319166001600160a01b0392909216919091179055565b60035461006f906001600160a01b031681565b6001818154811061012e57600080fd5b6000918252602090912001546001600160a01b0316905081565b60008060005b6001548110156101af57336001600160a01b031660018281548110610175576101756102bc565b6000918252602090912001546001600160a01b031603610198576001925061019d565b600092505b806101a7816102e8565b91505061014e565b508115156001036101c4576101c261022c565b505b60035460405163a9059cbb60e01b8152336004820152602481018390526001600160a01b039091169063a9059cbb90604401600060405180830381600087803b15801561021057600080fd5b505af1158015610224573d6000803e3d6000fd5b505050505050565b60025460009081906102406103e843610317565b6001546000549192506102529161032b565b915061025e818361033f565b91508061026a8161035c565b50919392505050565b60006020828403121561028557600080fd5b5035919050565b60006020828403121561029e57600080fd5b81356001600160a01b03811681146102b557600080fd5b9392505050565b634e487b7160e01b600052603260045260246000fd5b634e487b7160e01b600052601160045260246000fd5b6000600182016102fa576102fa6102d2565b5060010190565b634e487b7160e01b600052601260045260246000fd5b60008261032657610326610301565b500690565b60008261033a5761033a610301565b500490565b8082028115828204841417610356576103566102d2565b92915050565b60008161036b5761036b6102d2565b50600019019056fea26469706673582212207e4fea0eb9134e19400e0c208b24bf3210915750d753e717f3cbdf659d9d7dc964736f6c6343000811003360c0604052600860809081526726bc902a37b5b2b760c11b60a052600090610027908261014a565b5060408051808201909152600381526241424360e81b602082015260019061004f908261014a565b5034801561005c57600080fd5b5060405161062d38038061062d83398101604081905261007b91610209565b600281905533600081815260046020526040902091909155600380546001600160a01b0319169091179055610222565b634e487b7160e01b600052604160045260246000fd5b600181811c908216806100d557607f821691505b6020821081036100f557634e487b7160e01b600052602260045260246000fd5b50919050565b601f82111561014557600081815260208120601f850160051c810160208610156101225750805b601f850160051c820191505b818110156101415782815560010161012e565b5050505b505050565b81516001600160401b03811115610163576101636100ab565b6101778161017184546100c1565b846100fb565b602080601f8311600181146101ac57600084156101945750858301515b600019600386901b1c1916600185901b178555610141565b600085815260208120601f198616915b828110156101db578886015182559484019460019091019084016101bc565b50858210156101f95787850151600019600388901b60f8161c191681555b5050505050600190811b01905550565b60006020828403121561021b57600080fd5b5051919050565b6103fc806102316000396000f3fe608060405234801561001057600080fd5b50600436106100625760003560e01c806306fdde031461006757806318160ddd1461008557806370a082311461009c5780638da5cb5b146100c557806395d89b41146100f0578063a9059cbb146100f8575b600080fd5b61006f61010d565b60405161007c9190610294565b60405180910390f35b61008e60025481565b60405190815260200161007c565b61008e6100aa3660046102fe565b6001600160a01b031660009081526004602052604090205490565b6003546100d8906001600160a01b031681565b6040516001600160a01b03909116815260200161007c565b61006f61019b565b61010b610106366004610320565b6101a8565b005b6000805461011a9061034a565b80601f01602080910402602001604051908101604052809291908181526020018280546101469061034a565b80156101935780601f1061016857610100808354040283529160200191610193565b820191906000526020600020905b81548152906001019060200180831161017657829003601f168201915b505050505081565b6001805461011a9061034a565b336000908152600460205260409020548111156101ff5760405162461bcd60e51b81526020600482015260116024820152704e6f7420656e6f75676820746f6b656e7360781b604482015260640160405180910390fd5b336000908152600460205260408120805483929061021e90849061039a565b90915550506001600160a01b0382166000908152600460205260408120805483929061024b9084906103b3565b90915550506040518181526001600160a01b0383169033907fddf252ad1be2c89b69c2b068fc378daa952ba7f163c4a11628f55a4df523b3ef9060200160405180910390a35050565b600060208083528351808285015260005b818110156102c1578581018301518582016040015282016102a5565b506000604082860101526040601f19601f8301168501019250505092915050565b80356001600160a01b03811681146102f957600080fd5b919050565b60006020828403121561031057600080fd5b610319826102e2565b9392505050565b6000806040838503121561033357600080fd5b61033c836102e2565b946020939093013593505050565b600181811c9082168061035e57607f821691505b60208210810361037e57634e487b7160e01b600052602260045260246000fd5b50919050565b634e487b7160e01b600052601160045260246000fd5b818103818111156103ad576103ad610384565b92915050565b808201808211156103ad576103ad61038456fea2646970667358221220c4e6e75e7307c2ece1e0894428fb8241e59848e7c7fb3796d4e3c4488bc0278964736f6c63430008110033",
    "linkReferences": {}
  },
  "methodIdentifiers": {
    "addInvestor(address)": "e641bde1",
    "calculatePayout()": "83c64ec4",
    "claimTokens()": "48c54b9d",
    "investors(uint256)": "3feb5f2b",
    "token()": "fc0c546a"
  },
  "id": 7
}