{
  "abi": [
    {
      "inputs": [
        {
          "internalType": "address",
          "name": "bidder",
          "type": "address"
        },
        {
          "internalType": "contract ERC721",
          "name": "erc721Token",
          "type": "address"
        },
        {
          "internalType": "uint256",
          "name": "erc721TokenId",
          "type": "uint256"
        },
        {
          "internalType": "contract ERC20",
          "name": "erc20Token",
          "type": "address"
        },
        {
          "internalType": "uint256",
          "name": "price",
          "type": "uint256"
        }
      ],
      "name": "acceptBid",
      "outputs": [],
      "stateMutability": "nonpayable",
      "type": "function"
    },
    {
      "inputs": [
        {
          "internalType": "contract ERC721",
          "name": "erc721Token",
          "type": "address"
        },
        {
          "internalType": "uint256",
          "name": "erc721TokenId",
          "type": "uint256"
        },
        {
          "internalType": "contract ERC20",
          "name": "erc20Token",
          "type": "address"
        },
        {
          "internalType": "uint256",
          "name": "price",
          "type": "uint256"
        }
      ],
      "name": "createBid",
      "outputs": [],
      "stateMutability": "nonpayable",
      "type": "function"
    }
  ],
  "bytecode": {
    "object": "0x608060405234801561001057600080fd5b506103e8806100206000396000f3fe608060405234801561001057600080fd5b50600436106100365760003560e01c8063bd3a27b01461003b578063cc3c4d381461007c575b600080fd5b61007a61004936600461030f565b33600090815260208181526040808320969094186001600160a01b0316825294855282812093815292909352902055565b005b61007a61008a366004610357565b6001600160a01b0385811660009081526020818152604080832086891894851684528252808320878452909152812054908190036101195760405162461bcd60e51b815260206004820152602160248201527f42726f6b656e5365613a3a66696c6c4269642f4249445f50524943455f5a45526044820152604f60f81b60648201526084015b60405180910390fd5b828110156101695760405162461bcd60e51b815260206004820152601e60248201527f42726f6b656e5365613a3a66696c6c4269642f4249445f544f4f5f4c4f5700006044820152606401610110565b6001600160a01b038088166000908152602081815260408083209386168352928152828220888352905290812055833b806101e65760405162461bcd60e51b815260206004820152601a60248201527f42726f6b656e5365613a3a66696c6c4269642f4e4f5f434f44450000000000006044820152606401610110565b6101fb6001600160a01b03861689338761026d565b6040516323b872dd60e01b81523360048201526001600160a01b038981166024830152604482018890528816906323b872dd90606401600060405180830381600087803b15801561024b57600080fd5b505af115801561025f573d6000803e3d6000fd5b505050505050505050505050565b60006040516323b872dd60e01b81528460048201528360248201528260448201526020600060648360008a5af13d15601f3d11600160005114161716915050806102f05760405162461bcd60e51b81526020600482015260146024820152731514905394d1915497d19493d357d1905253115160621b6044820152606401610110565b5050505050565b6001600160a01b038116811461030c57600080fd5b50565b6000806000806080858703121561032557600080fd5b8435610330816102f7565b9350602085013592506040850135610347816102f7565b9396929550929360600135925050565b600080600080600060a0868803121561036f57600080fd5b853561037a816102f7565b9450602086013561038a816102f7565b93506040860135925060608601356103a1816102f7565b94979396509194608001359291505056fea264697066735822122045e261910a49a8dfbcf254de626d665d5de8fe2d45bf185945b17653b0e2d5d064736f6c63430008110033",
    "linkReferences": {}
  },
  "methodIdentifiers": {
    "acceptBid(address,address,uint256,address,uint256)": "cc3c4d38",
    "createBid(address,uint256,address,uint256)": "bd3a27b0"
  },
  "id": 11
}